{
  "_format": "hh-sol-artifact-1",
  "contractName": "Hello",
  "sourceName": "contracts/Hello.sol",
  "abi": [
    {
      "inputs": [
        {
          "internalType": "string",
          "name": "_message",
          "type": "string"
        }
      ],
      "stateMutability": "nonpayable",
      "type": "constructor"
    },
    {
      "anonymous": false,
      "inputs": [
        {
          "indexed": false,
          "internalType": "string",
          "name": "message",
          "type": "string"
        }
      ],
      "name": "MessageEvent",
      "type": "event"
    },
    {
      "inputs": [
        {
          "internalType": "string",
          "name": "_message",
          "type": "string"
        }
      ],
      "name": "message",
      "outputs": [],
      "stateMutability": "nonpayable",
      "type": "function"
    }
  ],
  "bytecode": "0x608060405234801561001057600080fd5b50604051610762380380610762833981810160405281019061003291906102d1565b6100458161005a60201b6100861760201c565b610054816100f960201b60201c565b50610391565b6100f68160405160240161006e919061036f565b6040516020818303038152906040527f41304fac000000000000000000000000000000000000000000000000000000007bffffffffffffffffffffffffffffffffffffffffffffffffffffffff19166020820180517bffffffffffffffffffffffffffffffffffffffffffffffffffffffff838183161783525050505061013360201b60201c565b50565b7f7ba22a0cbd3226111d8a61812ff4cd1934aace2147b8c59de1ecc9975f7af21881604051610128919061036f565b60405180910390a150565b60008151905060006a636f6e736f6c652e6c6f679050602083016000808483855afa5050505050565b6000604051905090565b600080fd5b600080fd5b600080fd5b600080fd5b6000601f19601f8301169050919050565b7f4e487b7100000000000000000000000000000000000000000000000000000000600052604160045260246000fd5b6101c38261017a565b810181811067ffffffffffffffff821117156101e2576101e161018b565b5b80604052505050565b60006101f561015c565b905061020182826101ba565b919050565b600067ffffffffffffffff8211156102215761022061018b565b5b61022a8261017a565b9050602081019050919050565b60005b8381101561025557808201518184015260208101905061023a565b60008484015250505050565b600061027461026f84610206565b6101eb565b9050828152602081018484840111156102905761028f610175565b5b61029b848285610237565b509392505050565b600082601f8301126102b8576102b7610170565b5b81516102c8848260208601610261565b91505092915050565b6000602082840312156102e7576102e6610166565b5b600082015167ffffffffffffffff8111156103055761030461016b565b5b610311848285016102a3565b91505092915050565b600081519050919050565b600082825260208201905092915050565b60006103418261031a565b61034b8185610325565b935061035b818560208601610237565b6103648161017a565b840191505092915050565b600060208201905081810360008301526103898184610336565b905092915050565b6103c2806103a06000396000f3fe608060405234801561001057600080fd5b506004361061002b5760003560e01c806305c766d114610030575b600080fd5b61004a600480360381019061004591906102a2565b61004c565b005b7f7ba22a0cbd3226111d8a61812ff4cd1934aace2147b8c59de1ecc9975f7af2188160405161007b919061036a565b60405180910390a150565b61011c8160405160240161009a919061036a565b6040516020818303038152906040527f41304fac000000000000000000000000000000000000000000000000000000007bffffffffffffffffffffffffffffffffffffffffffffffffffffffff19166020820180517bffffffffffffffffffffffffffffffffffffffffffffffffffffffff838183161783525050505061011f565b50565b60008151905060006a636f6e736f6c652e6c6f679050602083016000808483855afa5050505050565b6000604051905090565b600080fd5b600080fd5b600080fd5b600080fd5b6000601f19601f8301169050919050565b7f4e487b7100000000000000000000000000000000000000000000000000000000600052604160045260246000fd5b6101af82610166565b810181811067ffffffffffffffff821117156101ce576101cd610177565b5b80604052505050565b60006101e1610148565b90506101ed82826101a6565b919050565b600067ffffffffffffffff82111561020d5761020c610177565b5b61021682610166565b9050602081019050919050565b82818337600083830152505050565b6000610245610240846101f2565b6101d7565b90508281526020810184848401111561026157610260610161565b5b61026c848285610223565b509392505050565b600082601f8301126102895761028861015c565b5b8135610299848260208601610232565b91505092915050565b6000602082840312156102b8576102b7610152565b5b600082013567ffffffffffffffff8111156102d6576102d5610157565b5b6102e284828501610274565b91505092915050565b600081519050919050565b600082825260208201905092915050565b60005b8381101561032557808201518184015260208101905061030a565b60008484015250505050565b600061033c826102eb565b61034681856102f6565b9350610356818560208601610307565b61035f81610166565b840191505092915050565b600060208201905081810360008301526103848184610331565b90509291505056fea26469706673582212205165290b7233010025fa65a6481659be9515aa55b0c6eecf78e2a4e5c39253cc64736f6c63430008120033",
  "linkReferences": {},
  "deployedLinkReferences": {}
}